:020000040800F2
:10000000F81200209D01000853250008E5070008AC
:100010004F250008B7020008AB2E000800000000C2
:10002000000000000000000000000000452900085A
:10003000BB0200080000000003260008752A000823
:10004000B7010008B7010008B7010008B7010008B0
:10005000B7010008B7010008B7010008B7010008A0
:10006000B7010008B7010008B7010008B701000890
:10007000B7010008B7010008B7010008B701000880
:10008000B7010008B7010008B7010008B701000870
:10009000B7010008B7010008B7010008B701000860
:1000A000B7010008592B0008B7010008B701000884
:1000B000B7010008B7010008B7010008B701000840
:1000C000B7010008B7010008B7010008B701000830
:1000D000B7010008452C0008812C0008B701000872
:1000E000E9020008B7010008B7010008B7010008DD
:1000F000B7010008B7010008B7010008B701000800
:10010000B7010008B7010008B7010008B7010008EF
:10011000B7010008B7010008B7010008B7010008DF
:10012000B7010008B7010008B7010008B7010008CF
:10013000B7010008B7010008B7010008B7010008BF
:10014000B7010008B7010008B7010008B7010008AF
:10015000B7010008B7010008B7010008B70100089F
:10016000B7010008B7010008B7010008B70100088F
:10017000B7010008B7010008B7010008B70100087F
:10018000B7010008B7010008DFF80CD000F062F8F2
:10019000004800478F390008F812002006488047C1
:1001A00006480047FEE7FEE7FEE7FEE7FEE7FEE75C
:1001B000FEE7FEE7FEE7FEE7792A0008890100086E
:1001C000D2B201E000F8012B491EFBD27047002299
:1001D000F6E710B513460A4604461946FFF7F0FF46
:1001E000204610BD421C10F8011B0029FBD1801ACB
:1001F00070472DE9F05F0546002092469B468846F1
:100200000646814640241BE0284641464746224692
:1002100000F041F853465A46C01A914110D3114696
:100220001846224600F028F82D1A67EB01084F46C1
:1002300022460120002100F01FF817EB00094E4173
:10024000201EA4F10104DFDC484631462A4643461D
:10025000BDE8F09F064C074D06E0E06840F0010362
:1002600094E8070098471034AC42F6D3FFF790FFAC
:10027000603E0008803E0008202A04DB203A00FA95
:1002800002F1002070479140C2F1200320FA03F3ED
:10029000194390407047202A04DB203A21FA02F0EB
:1002A0000021704721FA02F3D040C2F120029140B0
:1002B00008431946704700BFFEE7704710B502A11A
:1002C00004A002F01CFE10BD6131323334353637E4
:1002D00038000000736474686B6A000010B503F0A6
:1002E000D9F803F0E1F910BD10B54FF400610548ED
:1002F00000F0C5F8044603F0A5FB4FF4805000F071
:1003000003F810BD0000024001490860704700007A
:10031000143C0140002123498279002A3AD00A4640
:10032000126803689A430B461A600A1D1268036834
:100330009A430B1D1A60027911440A6803681A4334
:100340000A60184A0832126803689A43154B08334A
:100350001A601A1D126803689A43124B0C331A6014
:100360004279102A0ED11A1F126803681A430D4BE6
:1003700008331A601A1D126803681A43094B0C33BC
:100380001A600DE00749427911440A6803681A436C
:100390000A6005E0027911440A6803689A430A601A
:1003A00070470000003C0140F0B50A4600210023E0
:1003B000002400BF3DE0012505FA01F3156805EAB8
:1003C00003049C4234D105684F000326BE40B54368
:1003D000056015794E00B54006683543056015790E
:1003E000012D02D01579022D16D185684F00032604
:1003F000BE40B543856055794E00B54086683543AB
:100400008560456801268E40B5434560456896790C
:100410008E40B6B235434560C5684F000326BE40E6
:10042000B543C560D5794E00B540C6683543C56053
:10043000491C1029BFD3F0BDF0B5002300244D079F
:10044000ED0E02FA05F3CE1000F1200555F8265006
:100450004E07F70E0F26BE40B543CF1000F1200621
:1004600046F82750CE1000F1200555F8265045EAF1
:100470000304CE1000F1200545F82640F0BD0246E9
:10048000002013690B400BB1012000E000207047F1
:100490007CB504460D465F2C00DD7CBD204603F094
:1004A000D6F9009002208DF805001DB901208DF8C5
:1004B000040002E000208DF80400204603F0CEF98D
:1004C00006466946FFF770FF00BFE6E7704710B5C4
:1004D00002F0D2FA03F066F9FFF7F8FF00F0BAF87D
:1004E00000F02EF803F040FA10BD70470BA002F0A8
:1004F00019FD012080F3138800BF00BFBFF34F8FA9
:100500000A48006800F4E06009490843001D0749F3
:100510000860BFF34F8F00BF00BFFEE75379732021
:100520007265626F6F742121210A00000CED00E0FA
:100530000000FA0501480068704700000000002034
:100540001FB542F2CF00ADF8040013200290002046
:10055000ADF80600ADF80C008DF80E0001A91248A8
:1005600002F02EFB4FF4C06002F030F819208DF835
:10057000000001208DF8030000208DF8010002200A
:100580008DF80200684601F0E5FF0121064802F0FF
:10059000F6FA01221146044802F009FB0121024843
:1005A00002F0F0FA1FBD00000000014002480068A0
:1005B000401C014908607047000000202DE9FF4100
:1005C00005460C46684602F064FC0DB91E4E05E077
:1005D000012D01D11D4E01E0BDE8FF811C4800EB5B
:1005E000051094E88E008EC00021304602F075FBA5
:1005F000002240F22551304602F0B2FBA068009084
:100600006088ADF804002088ADF808000020ADF83F
:1006100006000C20ADF80A00A088ADF80C00694671
:10062000304602F0C3FB40F22551304602F046FB53
:10063000012240F22551304602F092FB0121304662
:1006400002F04BFB00BFC7E7001001400044004030
:100650006C0000200EB54FF4C06001F0B7FF2520FC
:100660008DF8080000208DF8090001208DF80A009F
:100670008DF80B0002A801F06DFF26208DF8080010
:1006800000208DF8090001208DF80A008DF80B007C
:1006900002A801F05FFF072209212B48FFF7CCFEDB
:1006A00007220A212848FFF7C7FE4FF40070009088
:1006B00002208DF8040000208DF8060001208DF83E
:1006C000070002208DF8050069461F48FFF76CFE01
:1006D0004FF48060009000208DF8060001208DF816
:1006E000070002208DF8040069461748FFF75CFEFA
:1006F000072202211448FFF79FFE07220321124818
:10070000FFF79AFE0420009002208DF804008DF877
:10071000050000208DF8060001208DF807006946CD
:100720000948FFF741FE0820009002208DF80400E0
:1007300000208DF8060001208DF807006946024868
:10074000FFF732FE0EBD0000000002402DE9F0412F
:1007500005460F4690460DB90B4E02E0012D00D123
:100760000A4E00240CE0395D304602F08EFB00BFDB
:100770004021304602F0BDFA0028F9D0601C84B256
:100780004445F0DBBDE8F08100100140004400402A
:100790003EB5044600255320ADF80000012001902D
:1007A00069460F4802F00CFA01210D4802F0E4F905
:1007B00001210B4802F0E6F90AE00948008A00F03E
:1007C000010028B10121064802F0D9F9681C85B260
:1007D000A542F2DB0021024802F0D4F93EBD000040
:1007E0000010004000BFFEE71CB50121084601F0E3
:1007F00009FF102016490883009001208DF804009D
:1008000000208DF8060003208DF8050001208DF8EA
:10081000070069460E48FFF7C7FD0121022001F0DD
:10082000F1FE4FF400700B490880009001208DF814
:10083000040000208DF8060003208DF8050001203B
:100840008DF80700694603481838FFF7ADFD1CBD59
:10085000000002401804024010B54FF4A06001F0FF
:10086000B5FEFFF7C1FF00F033F810BD30B5164CF0
:10087000A3681D6825F001051D60D8605A602069D5
:10088000056825F001050560C1604260E2680F4916
:10089000916061688A890A899207FCD5016841F0F4
:1008A00001010160196841F00101196061690A687C
:1008B0009202FCD5196821F001011960016821F04C
:1008C0000101016030BD00003C00002000007D0FF0
:1008D00000B587B00121084601F094FEE0200590A4
:1008E00002208DF8180000208DF81A0003208DF8E2
:1008F000190001208DF81B0005A92248FFF754FDBF
:10090000052207211F48FFF797FD052206211D48F4
:10091000FFF792FD052211461A48FFF78DFD0121D0
:10092000080301F08FFE0121080301F09BFE002166
:100930004FF4805001F096FE0020ADF800004FF417
:100940008270ADF802000020ADF80400ADF806009A
:10095000ADF808004FF40070ADF80A001820ADF8AB
:100960000C000020ADF80E000720ADF8100069461D
:10097000054801F007FF0121034801F0F7FE07B029
:1009800000BD000000000240003001402DE9F843A6
:100990000025334C0F46009532496060164625709D
:1009A0004FF00109884202D02F49884201D184F8D2
:1009B000009006B13580018801F03801009101886E
:1009C00021F038010180018841F010010180018887
:1009D00021F001010180DFF894801146474501D3E1
:1009E000012000E0022001F03BFB002834D06068C9
:1009F000018821F0380101800188009A11430180AB
:100A0000474503D3018841F001010180FA2000F03D
:100A10008BF8FA2000F088F8FA2000F085F8FA2028
:100A200000F082F80E4A002133461832084600F0E2
:100A3000E7F8002810D00A480DA1183002F073FE24
:100A400000280BDD0C49484684F801908F4201D8FC
:100A5000A07000E0A5700120BDE8F8836570F9E79B
:100A60003C00002000380040003C0040002D3101D7
:100A7000312E312E362D45002A75150010B504464D
:100A8000074800884FF6C7710840054908800846A6
:100A90000088204308800121014801F067FE10BD55
:100AA0000030014006494A6813899B07FCD5107342
:100AB00000BF00BF0878002801D000BF00BF70470A
:100AC0003C0000200A4949680A891206FCD40A89B8
:100AD00012F4C05FF8D100E08A890A8912F0410F50
:100AE000FAD108730889C007FCD08889C0B2704762
:100AF0003C00002018B11021034A118302E01021AC
:100B0000014A5183704700000000024020B14FF4B9
:100B10000071044A118004E04FF40071014A921CF4
:100B2000118070471804024010B504462046FFF7B4
:100B30002FFE10BD10B50020FFF7DCFF012000F0F4
:100B400039F80020FFF7E2FF052000F033F801201C
:100B5000FFF7DCFF4FF4967000F02CF80120FFF750
:100B6000C9FF40F2ED1000F025F810BD1CB50E4C89
:100B700000200190FFF7DEFF0820FFF77FFF0B4CFE
:100B8000012000F017F801AA21460948FFF7FEFEF0
:100B900008B900201CBD684600F006F908B900201D
:100BA000F8E70120F6E70000005A6202406F4001BA
:100BB0000030014070B5044600250AE0002604E03C
:100BC000FA20FFF7B1FF701C86B2042EF8DB681C18
:100BD00085B2A542F2DB70BD1CB5049CCDE90034A2
:100BE00013460A460146282000F012FE1CBD08B537
:100BF0000023009101461A46012000F0A9FE08BD1D
:100C00002DE9F0418AB00F4604461D4616462021C4
:100C100001A8FFF7DCFA4FF000080DB1A5F800803D
:100C2000284601F005FB00283CD0072000F064FEB8
:100C3000012001F0DBF91F208DF804008DF80580FC
:100C40008DF8060000231A46032101A8009501F043
:100C50002BF9002826D08CB19DF8060000022060F8
:100C60009DF807100844000220609DF80810084411
:100C7000000220609DF809100844206017B19DF81B
:100C80000A0038706EB1002001A904E00A18127A37
:100C90003254401C80B29DF80B208242F6D806F8F0
:100CA000008001200AB0BDE8F08170B58AB00C4622
:100CB0000546202101A8FFF78AFA002604B1268004
:100CC000204601F0B5FA002823D0072000F014FEDA
:100CD000012001F08BF912208DF8040000208DF81E
:100CE0000560024601A98B5C521C184492B2C0B246
:100CF000022AF8D38DF8060000231A46032101A822
:100D0000009401F0D1F8002803D09DF80600287067
:100D100001200AB070BDF0B589B00F46064620210B
:100D200001A8FFF754FA002507B13D80384601F0CD
:100D30007FFA00282BD0072000F0DEFD012001F013
:100D400055F911208DF8040000218DF80550084652
:100D500001AC225C401C114480B2C9B20228F8D315
:100D60008DF8061000231A4603212046009701F053
:100D70009BF800280BD0002021188A7832548978FB
:100D800019B1401C80B20F28F6D3F573012009B0C9
:100D9000F0BD10B501F01AF9FF2803D0C00601D547
:100DA000012010BD002010BD70B5054601F00EF900
:100DB000FF280FD001F00AF960B10C4E0024305D1D
:100DC00000F0F1FE0A20FFF7AFFE01F0FFF8315D01
:100DD000814201D0002104E0641CA4B2062CEED3B1
:100DE000012105B12870084670BD00003C3E000896
:100DF0002DE9F04F89B00D46DDE91269834698462A
:100E00001446202101A8149FFFF7E1F94FF0000AD2
:100E10000FB1A7F800A0384601F00AFA002857D011
:100E2000072000F069FD012001F0E0F814208DF8A2
:100E3000040001208DF805008DF806B00BF11500B7
:100E40008DF8070000231A46042101A8009701F03D
:100E50002BF800283CD09DF8070030B10DB185F883
:100E600000A0A4B384F800A031E015B19DF80800FB
:100E7000287014B19DF8090020704FF6FF71B8F189
:100E8000000F0AD09DF80A0001EA0020A8F800002F
:100E90009DF80B201044A8F8000056B1002001AACC
:100EA00013181B7A3354401C80B21028F8D386F8EC
:100EB0000FA0B9F1000F0AD09DF81D0001EA002033
:100EC000A9F800009DF81E100844A9F800000120B0
:100ED00009B0BDE8F08F00002DE9FF4F89B0002573
:100EE000DDE917781A9C89462E46AA46AB460CB116
:100EF000A4F800B02146104601F054FA00283BD077
:100F000001F0DDF901208DF8040002208DF80500C4
:100F10004FEA19208DF8060000218DF80790084649
:100F200001AA135C401C194480B2C9B20428F8D34A
:100F30008DF8081000231A46052101A8009400F03E
:100F4000B3FF0028DBD09DF8060020B334B101F0D8
:100F50003DF84FF6FF7101EA002020809DF8060061
:100F6000FD2824D0FE2811D0FF2806D0002C03D065
:100F7000208840F02F002080A7E01CB1208840F09E
:100F800022002080C820FFF7CFFD9EE01CB1208802
:100F900040F0230020809DF808004FF6FF7101EA21
:100FA00000209DF80910084486B24E4505D94E46EA
:100FB0001CB1208840F0240020809DF8079049A1B2
:100FC0004A4802F0B0FB00281CDDB8F1000F0CD03D
:100FD0009DF80F004FF6FF7101EA0020A8F800000D
:100FE0009DF80E100844A8F80000CFB19DF812003B
:100FF00038709DF8130078709DF81400B8709DF853
:1010000015000CE0B8F1000F01D0A8F800B03FB116
:1010100087F800B087F801B0584687F802B0F8703A
:10102000052000F069FC0A20FFF77EFD00254AE05C
:10103000052000F0DBFF0120FFF776FD204601F0E0
:1010400092F968B90AF1010000F0FF0ABAF1020F43
:1010500006D2052000F050FC0520FFF765FD32E0C8
:1010600022484FF0000A1838C0780028A6EB050087
:1010700008D0202800DB2020C1B20998284400F0C5
:10108000C3FD07E0202800DB2020C1B209982844D6
:1010900000F099FD284485B20120FFF745FD0620A8
:1010A00000F0D6FD78B1B5420FD2741B202C0CDCB9
:1010B00000F097FB48B10998E1B2284400F083FDA5
:1010C000284485B201E0B542B2D3169810B1169902
:1010D00081F80090199800B106800DB02846BDE84F
:1010E000F08F0000312E312E362D350054000020B7
:1010F000F0B587B00CAF97E87000002704968DE834
:10110000B80005ABFFF7E8FE07B0F0BD2DE9FC47DE
:101110000E4680460025994692462F4668A16A48A9
:101120000A9C02F000FB002808DC4B465246314680
:101130004046009400F0CAF8BDE8FC8718F80500A6
:1011400018B16D1CEDB2202DF8D31B2D02D31B3D21
:10115000EFB21B2500232A46414618460094FFF7AC
:101160003BFD0028E8D06FB1092F01D9092200E02A
:101170003A46002308F11B0110200094FFF72CFDD4
:101180000028D9D0002215461746B05C20B1521C69
:10119000D2B2402AF9D301E01B2A02D31B3AD5B2BE
:1011A0001B220023314601200094FFF715FD002883
:1011B000C2D0F5B11B2D03D31B3DEFB21B2200E0C3
:1011C0002A46002306F11B0120200094FFF704FDAE
:1011D0000028B1D06FB1092F01D9092200E03A46A9
:1011E000002306F1360121200094FFF7F5FC0028CA
:1011F000A2D0002253461146FF200094FFF7ECFCDA
:10120000002899D000264FF6FF7509EB890826E0E3
:101210000027FA20FFF788FCFA20FFF785FCFA2068
:10122000FFF782FCFA20FFF77FFC7F1CBFB2C82FBC
:10123000EFD3214601A8FFF738FD01280DD19DF815
:101240000400042828D004DC022814D0032804D188
:1012500019E0052830D0FF2826D0761CB6B2B0455C
:1012600001D9AE42D4D34CB300F0B0FE05EA002061
:1012700040F032000EE00CB300F0A8FE05EA0020BA
:1012800040F04B0006E0CCB100F0A0FE05EA0020E3
:1012900040F04A00208011E084B100F097FE05EA9A
:1012A000002040F04D00F5E744B100F08FFE05EA64
:1012B000002040F04C00EDE701203DE700203BE737
:1012C000312E312E362D3700540000202DE9F04309
:1012D0008BB00E46074699469046202101A8129CE5
:1012E000FEF775FF002504B12580204600F0A0FF21
:1012F000002871D0072000F0FFFA012000F076FEF0
:1013000022208DF804001D208DF80500002001A981
:1013100005E00B18401C80B29A700D2802D23A5C8E
:10132000002AF6D18DF81350002005E00B18401C60
:1013300080B21A740D2802D2325C002AF6D18DF8E0
:10134000215000228DF8228010460B5C401C1A446C
:1013500080B2D2B21F28F8D38DF8232000231A467A
:10136000202101A8009400F09FFD00286AD09DF87C
:1013700006004FF6FF7518B1002609EB890833E027
:101380005CB300F023FE05EA002020809DF80610E3
:10139000803108433BE00027FA20FFF7C5FBFA2025
:1013A000FFF7C2FBFA20FFF7BFFBFA20FFF7BCFBF9
:1013B0007F1CBFB2C82FEFD3214609A8FFF775FCE9
:1013C00001280FD19DF8240004282AD006DC022829
:1013D00016D0032806D11CE034E036E0052830D0D2
:1013E000FF2826D0761CB6B2B04501D9AE42D2D382
:1013F0005CB300F0EBFD05EA002040F0320006E0AF
:101400001CB300F0E3FD05EA002040F04B00208013
:101410001BE0D4B100F0DAFD05EA002040F04A00FC
:10142000F5E794B100F0D2FD05EA002040F04D0050
:10143000EDE754B100F0CAFD05EA002040F04C0091
:10144000E5E701200BB0BDE8F0830020FAE73EB5E8
:1014500000240094CDE90143234600F007FC3EBD83
:101460002DE9FE438846DDE90A6481461D4617469C
:10147000214608A002F07EF910B10020BDE8FE83ED
:101480000095CDE9016401233A464146484600F003
:10149000EDFBF3E7312E312E362D460070B58AB0C4
:1014A0000D460646140001D000202080104600F0B2
:1014B000BFFE002837D0072000F01EFA012000F000
:1014C00095FD15208DF8040002208DF805008DF89B
:1014D000066000208DF80750014601AA535C491CA4
:1014E000184489B2C0B20429F8D38DF8080000234B
:1014F0001A46052101A8009400F0D6FC002812D05D
:101500000024FA20FFF710FBFA20FFF70DFBFA206A
:10151000FFF70AFBFA20FFF707FB641CA4B2142CA8
:10152000EFD39DF806000AB070BD70B58AB00D46C5
:101530000646140001D000202080104600F078FEFE
:10154000002835D0072000F0D7F9012000F04EFD2B
:101550001B208DF8040003208DF80500280A8DF863
:1015600006608DF8070000218DF80850084601AA92
:10157000135C401C194480B2C9B20528F8D38DF819
:10158000091000231A46062101A8009400F08CFCE3
:1015900000280DD09DF8060060B144B100F016FDA2
:1015A0004FF6FF7101EA002040F03F00208000204C
:1015B0000AB070BD0120FBE72DE9F04F91B0002685
:1015C000DDE91BB499461746884605460B960C96EE
:1015D0000D960E9604B12680214677A002F0CAF837
:1015E00048B921461A98FFF702FB20B920785628FF
:1015F0007CD05528FCD072A1734802F094F80DF10C
:101600002C0A00280BDA002051463A5C0A543A5C56
:101610001AB1401C80B21028F7D30E5407E02346BD
:101620005A463946504601F0CBF800287ED0204675
:1016300000F0FEFD002879D0072000F05DF90120C0
:1016400000F0D4FC18208DF80C0016208DF80D0049
:101650008DF80E504FEA18208DF80F008DF810808D
:10166000002003AA514605E01718401C80B27B7188
:10167000102802D20B5C002BF6D1401D80B2B2467E
:1016800004E000BF02F800A0401C80B21528F9D386
:101690004FEA19208DF821008DF822901A988DF8C4
:1016A000230000210846135C401C194480B2C9B2D3
:1016B0001828F8D38DF8241000230522192103A837
:1016C000009400F0F1FB00285BD09DF80E004FF66F
:1016D000FF7660B154B100F079FC06EA002020806A
:1016E0009DF80E10C1F18001084347E062E0BDB3F0
:1016F000022D45D0012D5DD100250BEB8B084DE06F
:101700008DF83CA0FA20FFF70FFAFA20FFF70CFA49
:10171000FA20FFF709FAFA20FFF706FA0127FA2064
:10172000FFF702FAFA20FFF7FFF900E029E0FA20BC
:10173000FFF7FAF9FA20FFF7F7F97F1CC82FEEDB65
:10174000CDF800A0CDE901A400230FAA19461A98EC
:10175000FFF74EFB00B39DF83C0007281CD200E0C9
:101760000EE0DFE800F004190D0D0D0D11000CB3B3
:1017700000F02CFC06EA002040F03300208019E045
:10178000012011B0BDE8F08FA4B100F01FFC06EA03
:10179000002040F03900F1E76D1CADB2A84501D939
:1017A000B542ADD334B100F011FC06EA002040F0A0
:1017B0003400E3E70020E4E7312E312E362D4E00D1
:1017C000312E312E362D33005400002010B500F09C
:1017D000FDFBFF2803D0000601D5012010BD00202D
:1017E00010BD10B500F0F2FB002802D0800601D435
:1017F000012010BD002010BD10B500F0E7FBFF2850
:1018000003D0C00700D0012010BD002010BD000093
:101810002DE9F04389B00D46DDE9109406461F46D8
:101820009046202101A8FEF7D2FC0CB100202080B8
:1018300021462FA001F09EFFF0BB204600F0F8FCEF
:10184000002843D0072000F057F8012000F0CEFB1D
:101850001B2F00D91B278DF80460B81C8DF80500DC
:101860008DF806908DF80750002001AA08E000BF0F
:1018700018F800101318401C80B219711B2801D2EF
:10188000B842F5D300219DF805000B46801C04E00A
:10189000D75C5B1C3944C9B29BB29842F8D8D1548A
:1018A0004FF47A72282E02D1FF2D00D00A225B1C41
:1018B000D9B2002301A800E018E0009400F0F4FA87
:1018C000002803D09DF8060018B1012009B0BDE83A
:1018D000F0835CB100F07AFB4FF6FF7101EA002063
:1018E00020809DF806108031084320800020EDE71D
:1018F000312E312E362D34002DE9F041044600F012
:1019000065FB0127A740054620EA0701A9421DD033
:1019100000264FF47A7800BF00F058FB0446A84236
:1019200007D005460220FFF7FFF8761CB6B2464501
:10193000F2D324EA0700A04208D020F0040000F00F
:1019400032F9BDE8F0410A20FFF7EEB8BDE8F081BA
:101950002DE9F0478EB00746169C1E4615468A466E
:10196000002004B120800090CDE9010480460023CE
:101970000CAA0BA95046FFF73BFA00287BD09DF834
:101980002C004FF6FF7930B1012801D0022804D194
:101990009DF8301009B117B11DE054252AE040B37D
:1019A000012802D0022805D015E09DF83000062855
:1019B0001FD010E08DF83480CDF80080CDE901848F
:1019C00000230DAA1946504600F076F8002863D08F
:1019D0009DF8340068B1204600F02AFC00285BD056
:1019E0000720FFF789FF012000F000FB4FB119200D
:1019F00008E05725F4B300F0E9FA09EA002028438B
:101A000048E01A208DF80C0001208DF80D008DF8AB
:101A10000EA09DB128788DF80F0068788DF8100021
:101A2000A8788DF81100E8788DF81200300A8DF84A
:101A3000130007208DF814608DF80D0000219DF82B
:101A40000D20084603AB921C04E01D5C401C294499
:101A5000C9B2C0B28242F8D81954401CC1B20023A6
:101A60001A4603A8009400F01FFA002814D09DF82D
:101A70000E0001E00FE00FE088B1F4280FD054B160
:101A800000F0A4FA09EA002020809DF80E10C1F1B0
:101A900080010843208000200EB0BDE8F0879DF84B
:101AA0002C0038B10024FA20FFF73EF8641CE4B2A1
:101AB000082CF8D30120EFE72DE9F0478AB08A46D9
:101AC000DDE91374814698461646202101A8129D2F
:101AD000FEF77DFB002006B1307004B12080204667
:101AE00000F0A6FB002832D00720FFF705FF0120F9
:101AF00000F07CFA2F208DF8040002208DF80500FC
:101B000009F1310050448DF806908DF8080000234B
:101B10008DF807A01A46052101A8009400F0C4F929
:101B2000002814D09DF80800D0B17CB100F04EFA26
:101B30004FF6FF7101EA002020809DF80810FF2970
:101B400008D0FE2909D040F03500208000200AB0DE
:101B5000BDE8F08740F05A00F7E740F05B00F4E79B
:101B600016B19DF8090030705DB19DF80A0028702B
:101B70009DF80B0068709DF80C00A8709DF80D0092
:101B8000E8703FB19DF80E0038809DF80F1001EB12
:101B900000203880B8F1000F03D09DF8101088F8AD
:101BA00000100120D3E710B504460020FEF7A2FF85
:101BB0000120FEF777FF2046FEF784FFBDE81040C6
:101BC0000120FEF797BF70B50C0005460DD0202C04
:101BD00000D920240020FEF78DFF0320FEF762FFCE
:101BE0000020FEF76FFF002307E0002070BD0020FB
:101BF000FEF768FFE8545B1CDBB2A342F7D3012079
:101C0000FEF778FF204670BD70B50C4606462029C9
:101C100000D920240D4D0320287000206870FEF7A5
:101C200069FFA21C05F122012846FEF71FFE0120D4
:101C3000FEF760FF002005E0291891F824103154C8
:101C4000401CC0B2A042F7D3204670BDB2060020AF
:101C500010B5044600F0BAF9FF2805D00121A140D3
:101C6000014201D0012010BD002010BD2DE9FF4F21
:101C70008DB00026DDE91BA41A9F99460D46B0469B
:101C800009960A960B960C960CB1A4F800800DF1FB
:101C9000240BB9F1010F1AD180A1824801F043FD54
:101CA00000280CDA002059463A5C0A543A5C1AB112
:101CB000401C80B21028F7D30BF8008007E02346C1
:101CC0001422394609A800F07BFD002873D0204675
:101CD00000F0AEFA00286DD000F01BFB8DF80480F8
:101CE00004208DF805000F988DF80600280A8DF85D
:101CF000085041468DF807008DF8098001AAB9F116
:101D0000010F20D101208DF8090000205B4607E07B
:101D100002EB000C401C80B28CF80670102802D236
:101D20001F5C002FF4D1801D01E01154401C80B2D3
:101D30001628FAD34FEA1A208DF81A008DF81BA046
:101D400016208DF8050000219DF8053008469B1CE3
:101D500004E0175C401C3944C9B280B28342F8D811
:101D600011549DF805000023C01CC1B200941A460E
:101D700001A800F099F8E8B19DF8060088B334B1E5
:101D800000F024F94FF6FF7101EA002020809DF851
:101D90000600F838082834D2DFE800F02E29241E87
:101DA00019130E041CB1208840F012002080C820B6
:101DB000FEF7BAFE4EE06DE094B3208840F01300C9
:101DC00003E06CB3208840F01400208042E03CB374
:101DD000208840F01500F8E714B3208840F0180080
:101DE000F3E713E0E4B1208840F01900EDE7BCB15F
:101DF000208840F01A00E8E794B1208840F01B00EA
:101E0000E3E76CB1208840F01F00DEE70B20FEF70F
:101E10008BFE00261CE0A81B202802DD202701E005
:101E200018E087B21F48F9B21838C07800280D981A
:101E3000304402D000F08AF901E000F0ABF90B2049
:101E4000FEF772FE204600F0CFFA18B1F01986B204
:101E5000AE42E0D3022000F0C9F80220FEF764FE93
:101E60000F21042000F0C7F910B9022000F0BEF8DD
:101E7000AE420ED3B5F5807F0BD8FA2D01D30A20E0
:101E800005E01420FEF750FEC5F1FF00C0B2FEF7DA
:101E90004BFE304611B0BDE8F08F0000312E312EE0
:101EA000362D3300540000202DE9F0411F46164620
:101EB000054690F80080069C00F022F90A2009E00F
:101EC000FA20FEF731FEFA20FEF72EFEFA20FEF78A
:101ED0002BFEFA20FEF728FE761EB6B2F0D2204680
:101EE00000F082FA002869D04FF47A7047434CF230
:101EF0005030B7FBF0F700267F1C05E0204600F0CD
:101F0000B8F918B9761CB6B2BE42F7D3BE4254D265
:101F100020212846FFF757FE0A20FEF705FE07207E
:101F2000FFF7EAFC0022697810468B1C04E02E5C67
:101F3000401C3244D2B280B29842F8D368184FF6AF
:101F4000FF768078904207D084B300F03FF806EA2D
:101F5000002040F030000BE0287820F0800141455F
:101F600008D01CB300F032F806EA002040F031003F
:101F7000208022E0002113A001F0FCFB00BBA87828
:101F800078281DD194B100F021F806EA00202080C5
:101F9000A978A9B1012906D0022908D0032909D0BE
:101FA00040F04800E4E740F04500E1E705E040F09C
:101FB0004600DDE740F04700DAE70020BDE8F081A9
:101FC0000120FBE7312E312E362D4E0010B50020BA
:101FD000FEF790FD0420FEF765FD0020FEF772FD80
:101FE00004460120FEF786FD204610BD2DE9F0478E
:101FF0000646FFF7EBFF0546012000FA06F848EA1F
:102000000500C0B2A84203D1022E01D0052E25D171
:1020100000274FF47A7900BFFFF7D8FF0446A842A3
:1020200007D005460220FEF77FFD7F1CBFB24F455B
:10203000F2D348EA0400C0B2A04204D1022E06D076
:10204000052E0BD101E0022E01D020F00400FFF795
:10205000AAFDBDE8F0470A20FEF766BDBDE8F0879F
:1020600030B58DB005460C0001D000202080084618
:1020700000F0DEF800283ED00720FFF73DFC0120ED
:10208000FFF7B4FF42208DF8040001208DF8050011
:102090001A488DF80650002201A9835C8D18521C45
:1020A00092B2EB70102AF8D3144B09AD12330DCB5A
:1020B00085E80D00002209A88D18835C521C92B29D
:1020C000EB740A2AF8D31B208DF805000020024685
:1020D0008B5C521C184492B2C0B21D2AF8D38854AB
:1020E000521CD1B200231A4601A80094FFF7DCFE6F
:1020F000002800D001200DB030BD0000423E000895
:1021000070B50D0006461ED0202D00D320250020DE
:10211000FEF7F0FC0220FEF7C5FC0020FEF7C2FC33
:10212000002404E0305DFEF7BDFC641CE4B2AC4268
:10213000F8D30548406801890906FCD4BDE8704021
:102140000120FEF7D7BC70BD3C00002070B50C46E6
:10215000202900D320240E4902220A7000224A704E
:10216000134604E0C25CCD185B1CAA70DBB2A3422C
:10217000F8D30020FEF7BEFC0549A21C223104481A
:10218000FEF774FBBDE870400120FEF7B3BC000011
:10219000B206002070B50D0006461ED0202D00D3DB
:1021A00020250020FEF7A6FC0220FEF77BFC002085
:1021B000FEF778FC002404E0305DFEF773FC641C3D
:1021C000E4B2AC42F8D30548406801890906FCD462
:1021D000BDE870400120FEF78DBC70BD3C000020C2
:1021E00010B5FFF7F3FEFF2801D0800701D50020CE
:1021F00010BD012010BD2DE9F0410D460746002419
:102200004FF6FF760DE0FFF7E1FEFF2804D03842DD
:1022100002D00120BDE8F0810220FEF785FC641C9D
:10222000A4B2B4EB550F01D2B442ECD30020F1E7D5
:102230002DE9F0410546002446F2A8174FF6FF7637
:10224000FFF7DAFA10B10120BDE8F0810220FEF7B5
:102250006BFC641CA4B2BC4201D2B442F0D335B1D1
:10226000FFF7B4FE06EA002040F0100028800020AE
:10227000EAE72DE9F0410546002446F2A8174FF69B
:10228000FF76FFF7A3FA10B10120BDE8F08102202C
:10229000FEF74AFC641CA4B2BC4201D2B442F0D3A3
:1022A0005DB1FFF793FE06EA002028800220FEF7CA
:1022B0003BFC288840F0160028800020E5E72DE947
:1022C000F041FFF783FE054620F0A00040F0020138
:1022D000A9421CD000264FF47A77FFF777FE044618
:1022E000A84207D005460220FEF71EFC761CB6B2B7
:1022F000BE42F2D324F0A00040F00200A04206D07B
:10230000FFF751FCBDE8F0410A20FEF70DBCBDE827
:10231000F0812DE9F041FFF759FE054620F08400D9
:1023200040F00201A9421CD000264FF47A77FFF753
:102330004DFE0446A84207D005460220FEF7F4FBF6
:10234000761CB6B2BE42F2D324F0840040F0020004
:10235000A04206D0FFF727FCBDE8F0410A20FEF7B7
:10236000E3BBBDE8F08170B50546002446F2A8162F
:102370000AE0FFF736FA08B1012070BD0220FEF72F
:10238000D3FB641CB44201D2601CF2D145B1FFF70B
:102390001DFE4FF6FF7101EA002040F0200028806A
:1023A000002070BD70B5054600244FF47A700E46CB
:1023B000454308E0FEF7EDFC08B1012070BD0220A6
:1023C000FEF7B2FB641CB4EB550F01D2601CF1D1D7
:1023D00046B1FFF7FBFD4FF6FF7101EA002040F028
:1023E00010003080002070BD2DE9F041054600242A
:1023F00046F2A8174FF6FF76FFF7F2FE10B1012064
:10240000BDE8F0810220FEF78FFB641CBC4201D2C4
:10241000B442F1D335B1FFF7D9FD06EA002040F010
:10242000110028800020EBE72DE9FF4705460E4606
:1024300017469846DDF8309000242AE0174810F837
:102440003400FF2823D103A8002143463A46CDE9B2
:102450000041029031462846FFF7AEF8B8B10F4868
:1024600000EBC40045700D4800F8344000EBC40098
:10247000C0F80490022D04D103AAB4212046FFF72E
:1024800054F8064800EBC40004B0BDE8F087601CB7
:10249000C4B2022CD2DB0020F6E700003401002099
:1024A000F8B504460F461546002694B100BF2278C1
:1024B0006B4629463846FEF7CAFF304486B2BDF85F
:1024C0000000C0B2102802DB4FF0FF30F8BDAE4272
:1024D000EDDB3046FAE7000010B5FF22102102487C
:1024E000FDF76EFE10BD00003401002010B501F0B4
:1024F00055FA10BD38B504462CB120786946FEF770
:1025000076FBFF20207038BD2DE9FE4304460E46C1
:1025100017469846DDF828900025B4B100BF02A800
:10252000CDE900702278334649464046FEF798FFD1
:10253000284485B2BDF80800C0B2102803DB4FF074
:10254000FF30BDE8FE834D45E9DB2846F9E700BFD3
:10255000FEE7704770B5002100230F22C4781CB33A
:10256000174C246804F4E064C4F5E064C4F3072164
:10257000C1F10404E3B20A4144789C40E1B284789A
:10258000144021430C07210E0E4C05786155047848
:1025900004F01F050124AC4005786D11AD0005F174
:1025A000E025C5F8004109E0047804F01F05012486
:1025B000AC40054D0678761145F8264070BD000008
:1025C0000CED00E000E400E080E100E0024901439E
:1025D000024A1160704700000000FA050CED00E0AF
:1025E00010B501210C20FDF753FF01210B20FDF751
:1025F0004FFF012001F0B8FA10BD10B501F054F9F9
:1026000010BD704729B1064A12680243044B1A6094
:1026100004E0034A12688243014B1A6070470000CD
:102620003038024029B1064A12680243044B1A604E
:1026300004E0034A12688243014B1A6070470000AD
:102640004038024029B1064A12680243044B1A601E
:1026500004E0034A12688243014B1A60704700008D
:102660004438024029B1064A12680243044B1A60FA
:1026700004E0034A12688243014B1A60704700006D
:1026800024380240F0B50021002200240225002653
:102690000223324F3F6807F00C0121B1042905D015
:1026A000082937D105E02E4F076036E02D4F07602F
:1026B00033E02A4F3F1F3F68C7F38056274F3F1F25
:1026C0003F6807F03F036EB1264FB7FBF3F7DFF823
:1026D0008CC0ACF1040CDCF800C0CCF3881C07FB08
:1026E0000CF40CE01E4FB7FBF3F7DFF870C0ACF151
:1026F000040CDCF800C0CCF3881C07FB0CF4174F6B
:102700003F1F3F68C7F301477F1C7D00B4FBF5F70F
:10271000076002E0124F076000BF00BF0F4F3F6825
:1027200007F0F0010909104F7A5C0768D74047604D
:102730000A4F3F6807F4E051890A0B4F7A5C4768FB
:10274000D7408760054F3F6807F46041490B064F4B
:102750007A5C4768D740C760F0BD00000838024087
:102760000024F40000127A000400002021B1028845
:1027700042F04002028004E002884FF6BF731A4024
:102780000280704710B50022028802F441520B8883
:102790004C8823438C882343CC8823430C892343D0
:1027A0004C8923438C892343CC8923431A430280D9
:1027B000838B4FF2FF74234083830B8A038210BD07
:1027C0002DE9F0438DB0884606461C461746202169
:1027D00001A8FDF7FCFC4FF000090CB1A4F8009033
:1027E000214652A000F0C6FF002874D151A009ADC7
:1027F0000FC885E80F0000200DF1240118F9002012
:102800000B569A4204D1401C80B21028F6D301E046
:1028100010280AD300200A5C3254401C80B21028D1
:10282000F9D301200DB0BDE8F0832046FFF700FD8D
:102830000028F7D00720FFF75FF80120FFF7D6FB4D
:1028400025208DF804008DF8067000200DF1040598
:102850002A1818F80010D17018F8001019B1401C8F
:1028600080B21C28F4D32A18811C82F8039000221D
:102870008DF80510C8461146001D04E06B5C491C2C
:102880001A44D2B289B28142F8D36A5400941E2FFE
:1028900000D91E2707EB4700C0EBC7104FF6FF77A4
:1028A00007EAC0039DF805000022C01CC1B22846FB
:1028B000FFF7FAFA0028B5D09DF80600D0B154B160
:1028C000FFF784FB07EA002020809DF80610FA3904
:1028D000062928D200E024E0DFE801F020201D1ABC
:1028E00017142918CA783254C97841B1401C80B2F3
:1028F000102804D29DF80510891E8142F1DC06F8EB
:1029000000808EE740F03A000AE040F03B0007E02C
:1029100040F03C0004E040F05E0001E040F05F0069
:10292000208000207EE740F03D00F9E7312E312E77
:10293000362D33003235352E3235352E3235352EA3
:10294000323535007047000030B500228B071C0F70
:102950000F2303FA04F20B4B8C1053F824309343EB
:10296000084C8D1044F8253023468C1053F8243041
:102970008C07240F00FA04F42343024C8D1044F812
:10298000253030BD083801400CB500200190009082
:102990003448006840F480303249086000BF314854
:1029A000006800F4003000900198401C01900098ED
:1029B00018B90198B0F5A04FF1D12A48006800F489
:1029C000003010B10120009001E00020009000983C
:1029D000012846D123484030006840F0805021490A
:1029E000403108602048006840F440401E490860BB
:1029F0001C48083000681B49083108600846006818
:102A000040F4004008600846006840F4A0500860A8
:102A10001648091F0860081F006840F08070091FF1
:102A2000086000BF0F48006800F000700028F9D06F
:102A300040F205700E4908600A480830006820F02E
:102A400003000849083108600846006840F00200A9
:102A5000086000BF03480830006800F00C00082838
:102A6000F8D10CBD00380240007000400854400707
:102A7000003C02407047000010B51548006840F463
:102A80007000134908601348006840F001001149C4
:102A9000086000200F49083108600E4800680E49A0
:102AA00008400C4908600D48091D0860081F0068AF
:102AB00020F48020091F0860002006490C310860BE
:102AC000FFF762FF4FF0006001498039086010BDD8
:102AD00088ED00E000380240FFFFF6FE10300024D1
:102AE00010B5FDF7F4FCFFF77BFD00F0F7F90028C7
:102AF0000FDA00BF09490AA000F014FA0AA000F09A
:102B000011FA0EA000F00EFA00BFFDF7EFFC00BFB7
:102B1000FEE7FFF7E1FCFDF7D1FB10BD683C0008C4
:102B200025733A20000000005769666920696E69C4
:102B300074206572726F7221000000000D0A00009F
:102B400010B5FDF7D2FCFFF758FD00F0E9F9FFF7EB
:102B5000CDFCFDF7C3FB10BD10B50121054800F009
:102B60001DF828B10121034800F009F8FDF71EFD0A
:102B700010BD000000000140CA4302827047CA43F2
:102B80000282704721B1028842F00102028004E013
:102B900002884FF6FE731A400280704702460020FA
:102BA000138A0B400BB1012000E0002070471AB1DE
:102BB00083890B43838102E083898B438381704740
:102BC00000220288184B98420ED0184B98420BD026
:102BD000B0F1804F08D0164B984205D0154B984263
:102BE00002D0154B984204D14FF68F731A404B8890
:102BF0001A43124B984207D0114B984204D04FF61B
:102C0000FF431A400B891A4302804B68C3620B884A
:102C10000385054B984202D0044B984201D18B7A30
:102C200003860123838270470000014000040140B5
:102C30000004004000080040000C0040001000406C
:102C40000014004008B540F225510B4800F05EF832
:102C500088B140F22551084800F030F8064800F0ED
:102C60000FF9C0B200900548C06820B103480121A7
:102C7000C2686846904708BD001001406C00002003
:102C800008B540F225510B4800F040F888B140F2F9
:102C90002551084800F012F8064800F0F1F8C0B2DB
:102CA00000900548C06920B103480121C269684607
:102CB000904708BD004400406C00002010B5002281
:102CC000002340F66A14A14200D100BF0A12012479
:102CD0009440A3B2DC43048010BD21B1828942F448
:102CE0000052828104E082894DF6FF731A4082818E
:102CF000704702460020B1F5007F00D100BF138865
:102D00000B400BB1012000E00020704770B5024677
:102D1000002400230025002040F66A16B14200D1AD
:102D200000BFC1F3421501F01F03012606FA03F3A9
:102D3000012D02D19689334006E0022D02D1168A78
:102D4000334001E0968A33400C12012606FA04F45F
:102D50001688344013B10CB1012000E0002070BD92
:102D6000F0B50346002400260025002040F66A172F
:102D7000B94200D100BF1846C1F3421401F01F064A
:102D8000012707FA06F5012C01D10C3004E0022CD2
:102D900001D1103000E014301AB107682F430760EA
:102DA00002E00768AF430760F0BD00002DE9FF4770
:102DB00005460E460024A14600BFA046B08900B1DA
:102DC00000BF2C8A24F44054F08804432C82AC8940
:102DD00041F20C608443B08831890843718908430B
:102DE0000443AC81AC8A24F44074B0890443AC82BF
:102DF0006846FFF747FC2048854202D01F488542BD
:102E000002D1DDF80C9001E0DDF80890A88900F40B
:102E1000004040B109EBC90000EB091031684900DE
:102E2000B0FBF1F707E009EBC90000EB09103168CE
:102E30008900B0FBF1F76420B7FBF0F00401200932
:102E4000642101FB1078A88900F4004040B13220D1
:102E500000EBC800B0FBF1F000F00700044308E00D
:102E6000322000EB08106421B0FBF1F000F00F00FD
:102E700004432C81BDE8FF8700100140001401408D
:102E800001468888C0F308007047C1F308028280B9
:102E900070474FF41651016000218180C18001818B
:102EA0000C21418100218181704700BFFEE71CB5E4
:102EB000694601A8FDF7F9FE10B19DF804001CBD9C
:102EC0000020FCE710B500210348FDF724FF08B1FE
:102ED000014810BD0020FCE7A206002008B5FDF760
:102EE000BBFCFDF743FE38B16A4601210846FEF7F8
:102EF000D5FA08B1002008BD4FF0FF30FBE738B528
:102F000004460D4600201423012229460090204645
:102F1000FEF7FCF808B1002038BD4FF0FF30FBE7AA
:102F2000704700000FB4054B10B503A9044A02987E
:102F300000F02CF810BC5DF814FB000015370008F9
:102F4000680000200FB4084B10B504A902AA03982A
:102F500000F01CF8044602A9002000F048FA2046C0
:102F600010BC5DF814FB0000EF33000802E008C855
:102F7000121F08C1002AFAD170477047002001E0F3
:102F800001C1121F002AFBD1704700002DE9FF4F3D
:102F90008DB00F460546002606E025280BD0DDE95A
:102FA0000F1290476D1C761C28780028F5D111B0BF
:102FB0003046BDE8F08F0024A246A1460122EC492C
:102FC00000E0044315F8013F203B02FA03F00842F9
:102FD000F7D128782A2810D06FF02F022878A0F196
:102FE0003001092914D80AEB8A0102EB410144F0AF
:102FF000020400EB010A6D1CF0E701CF5FEA000A52
:1030000003D544F40054CAF1000A44F002046D1CD4
:1030100028782E2817D115F8010F44F004042A2827
:103020000ED06FF02F022878A0F1300109290AD8BC
:1030300009EB890102EB410100EB01096D1CF2E78C
:1030400057F8049B6D1C28786C280FD006DC4C28A0
:1030500017D068280DD06A2814D104E0742810D045
:103060007A280FD10DE044F400140AE044F48014EF
:1030700001E044F440146978814202D104F58014DF
:103080006D1C6D1C2A786E2A1FD00CDC632A31D08F
:1030900004DC002A8BD0582A11D1A3E0642A68D01E
:1030A000692A0CD165E0732A2ED004DC6F2A73D014
:1030B000702A04D19BE0752A6FD0782A6ED0104612
:1030C000DDE90F129047761C50E1C4F3025002284C
:1030D00006D0032809D0042801CF09D0066045E1B5
:1030E00001CFF117C0E9006140E101CF06803DE169
:1030F00006703BE117F8040B8DF8000000208DF8F6
:103100000100EB46012003E057F804BB4FF0FF300D
:1031100061074FF0000102D40DE008F1010188467B
:1031200049450FDA8045F8DB1BF808100029F4D177
:1031300008E008F1010188468142FADB1BF808101B
:103140000029F6D1DDE90F23AAEB080081462146CC
:1031500000F036F9304400EB080604E0DDE90F1218
:103160001BF8010B9047B8F10108F7D221464846F9
:10317000F7E00A21C4F302534FF0000B0891022B31
:1031800004D001CFC117032B09D00AE0FF1D27F09F
:103190000707F7E8020108E032E01FE020E000B294
:1031A000C117042B01D140B2C117031E71F10003F6
:1031B00007DA4FF0000CD0EB0C006CEB01012D2373
:1031C00002E0230504D52B238DF82430012303E0EE
:1031D000E30701D02023F7E7984658E00A2110E0E2
:1031E00010210EE010204FF0000B08900CE0102191
:1031F0004FF0000B44F004044FF00809089103E07D
:1032000008214FF0000B0891C4F30253022B04D0A5
:1032100001CF0021032B06D006E0FF1D27F0070792
:10322000F7E8020103E080B2042B00D1C0B24FF0F6
:10323000000823072BD5702A07D0DDF820C08CF0BA
:10324000100C5CEA0B0C05D00EE040238DF8243006
:10325000012308E050EA010306D030238DF8243022
:103260008DF8252002239846DDF820C08CF0080C4C
:103270005CEA0B0C0BD150EA010301D1630706D5C0
:1032800030238DF824304FF00108A9F10109582AA4
:1032900004D038A20B9208AA0A920BE03AA2F9E7EE
:1032A0005B46089AFCF7A5FF0B9B9B5C0A9A521E93
:1032B0000A92137050EA0102F2D10A98ADEB0000B5
:1032C00000F1200B600702D524F4803401E04FF0B8
:1032D0000109D94502DDA9EB0B0000E0002000EB5D
:1032E0000B0141440890AAEB010AE00306D4DDE992
:1032F0000F232146504600F063F806444FF00009C2
:1033000008E009A911F80900DDE90F12904709F159
:103310000109761CC145F4DBE0030CD5DDE90F2380
:103320002146504600F04CF8064404E0DDE90F1257
:1033300030209047761C0899481E08900029F5DC3B
:1033400008E00A980A990078491C0A91DDE90F12F1
:103350009047761CBBF10001ABF1010BF1DC21467B
:103360005046DDE90F2300F019F806446D1C1BE6FA
:10337000092801003031323334353637383961624B
:10338000636465660000000030313233343536370F
:103390003839414243444546000000002DE9F041E0
:1033A000044600251E461746880404D405E0394625
:1033B0002020B0476D1C641EF9D52846BDE8F08179
:1033C0002DE9F041044600251E469046C80301D56C
:1033D000302700E02027880404D505E04146384620
:1033E000B0476D1C641EF9D52846BDE8F0810A6817
:1033F000531C0B601070704710B50346002100226B
:1034000007E001209040184008B1481CC1B2501C90
:10341000C2B2082AF5DB084601EBD0746410A1EBB8
:1034200044040CB1002010BD0120FCE72DE9F0415F
:1034300004460D4616461F4600BF0B490BA0FFF77A
:1034400071FD3B462A4621460AA0FFF76BFD0FA0FF
:10345000FFF768FD00BF3A4631460D480068FFF7A8
:103460001FF8BDE8F0810000FE3D000825733A20FA
:103470000000000066726F6D3A5B25733A25645D4B
:103480002C206C656E203D20256400000D0A000094
:103490002C00002008B5FDF74DF841490968401A95
:1034A00041F28831884279D93E480078002841D0DD
:1034B0003D480078E0B93D4800233DA242F25271F8
:1034C00000900220FEF7B0FF3B4908600846006804
:1034D00070B101203449087000BF384938A0FFF7A7
:1034E00021FD39A0FFF71EFD3CA0FFF71BFD00BF2B
:1034F0003B48007800284DD13A4800232CA242F2E4
:10350000537100901846FEF78FFF37490860084650
:10351000006800283ED001203149087000BF2749CB
:1035200027A0FFF7FFFC31A0FFF7FCFC2BA0FFF763
:10353000F9FC2FE01C480078A0B11F480068FEF796
:10354000D9FF00201C4908601749087000BF1B49BB
:103550001BA0FFF7E7FC2AA0FFF7E4FC1FA0FFF782
:10356000E1FC00BF1E480078A0B11F480068FEF7CC
:10357000C1FF00201C4908601949087000BF0F49AD
:103580000FA0FFF7CFFC24A0FFF7CCFC13A0FFF7A0
:10359000C9FC00BFFCF7CEFF0149086008BD000070
:1035A0003400002028000020290000202D340008CD
:1035B000312E312E312E31002C0000202A3E000801
:1035C00025733A20000000007463702073657276E2
:1035D0006572206372656174656400000D0A000005
:1035E0002A00002031360008300000207564702069
:1035F000736572766572206372656174656400003C
:10360000746370207365727665722072656C656193
:103610007365642100000000756470207365727624
:1036200065722072656C656173656421000000003D
:103630002DE9F84304460D4691461E4600BF0F494A
:103640000FA0FFF76FFC33462A4621460EA0FFF776
:1036500069FC13A0FFF766FC00BFFFF733FC804650
:103660004046FCF7BFFD87B243462A4621460D4837
:1036700000970068FEF748FFBDE8F883143E000895
:1036800025733A200000000066726F6D3A5B257367
:103690003A25645D2C206C656E203D202564000079
:1036A0000D0A00003000002010B5FCF743FF0E4962
:1036B0000968401AB0F5FA6F14D9FFF7F8FB05282E
:1036C00006D101200949087009A0FFF72BFC05E08D
:1036D0000020064908700AA0FFF724FCFCF72AFF27
:1036E0000149086010BD00003800002028000020BB
:1036F000617020636F6E6E65637465640A0000001C
:10370000617020646973636F6E6E65637465640ACB
:103710000000000013B50C46012269461046FDF773
:1037200015F800981CBD30B5002214468356542B62
:1037300001D0532B00D184548B56542B01D0532BE2
:1037400000D18C54835633B18D5625B1AB4202D192
:10375000521CD2B2EAE780568956884202DD4FF009
:10376000010030BD02D14FF0000030BD4FF0FF30FE
:1037700030BD000010B50C4601460948FFF7D3FFE5
:1037800000280BDA44B1FEF721FC4FF6FF7101EA85
:10379000002040F077002080012010BD002010BDE7
:1037A0005400002010B501210846FEF72BFF01212F
:1037B0000220FEF727FF01210420FEF723FF01214D
:1037C0000820FEF71FFF01211020FEF71BFF01213B
:1037D0001020FEF737FF01214804FEF723FF0121E7
:1037E0000846FEF72FFF01211020FEF71BFF0121E5
:1037F0008803FEF727FF10BD3EB504460C210020CC
:10380000FFF7A2F84FF48050019000208DF80800D7
:103810000C208DF8090001208DF80A0001A8FCF7A2
:1038200079FD4FF48050FCF76FFD28208DF80000E3
:1038300000208DF801008DF802000CB1012000E09D
:1038400000208DF803006846FEF784FE3EBD014669
:1038500001F00F020120904080B2704701460A112A
:10386000062A10D2DFE802F0030507090B0D07480E
:1038700070470748FCE70748FAE70748F8E70748B2
:10388000F6E70748F4E70748F2E7000000000240C7
:103890000004024000080240000C024000100240F8
:1038A00000140240001802402DE9F04101274FF0BA
:1038B0000008002647E027480188801D445C00BFBF
:1038C000801F808850B123480078401C00F07F00A2
:1038D0002049088008468088401E888000BF214615
:1038E0001DA0FFF71FFBE02C03D101201C4908702D
:1038F00029E0F02C03D101201A49087023E0254665
:103900001748007810B105F5604085B2284600F0F0
:1039100003F90646FF2E06D14FF00008284600F0B6
:103920000DF9064601E04FF001080E48007800B19D
:10393000002732463946404600F044F90020094944
:10394000087007490870034880880028B3D1BDE893
:10395000F0810000AC00002025303278200000000B
:1039600024000020250000201FB54FF4E130029014
:103970000020ADF804000120ADF800000020ADF8F3
:103980000200039069460120FCF718FE1FBDFFF7F7
:10399000A7F801E0FFF7D4F8FCE7000070B58CB0A1
:1039A00000200490059006900790FDF7F2F900289A
:1039B0003BD000BF0BA808A909AA0AABCDE900219A
:1039C000029064224FF480611948FDF791FB044690
:1039D000BDF82C00C5B2002C21DD16489DF828103A
:1039E00000EBC1004068D0B19DF827009DF826107B
:1039F000CDE900109DF825309DF824200EA104A8E3
:103A0000FFF7A0FA0B489DF8281000EBC1002346F1
:103A1000074ABDF82010466804A8B04700E003E05C
:103A2000242DC7D0232DC5D000BF0CB070BD000021
:103A3000440100203401002025642E25642E2564D5
:103A40002E25640010B50446FCF774FD2E49096864
:103A5000401A052804D900202C4908702C49087008
:103A6000FCF768FD2849086028480078401C274971
:103A7000087008460078012804D1002C43D00020AB
:103A8000087040E0214800780A280BD120480078CF
:103A9000FFF7B2FCA04236D000201C4908701C4938
:103AA000087030E0194800780B2822D1012C2AD167
:103AB00018488088802816D200BF16488088802841
:103AC00010D21348017813484288801D8154801F0A
:103AD0008078401C00F07F000E49488008468088AE
:103AE000401C888000BF0020084908700849087001
:103AF00009E006480078801E04FA00F004490978BD
:103B000008440349087010BD200000201C0000205C
:103B10001D000020AC0000200246002108E00648FD
:103B200030F81100904201D108467047481CC1B2DC
:103B30000829F4DBFF20F8E7EE3D000802460021EB
:103B40000BE0084830F82100904204D1054800EB12
:103B5000810080787047481C81B25D29F1D3FF2035
:103B6000F8E700007A3C000810B504462046FFF74D
:103B700043FE10BD10B502460B4600210DE0104873
:103B8000405C984207D10AB1002010BD00240C48C7
:103B900044540120F9E7481CC1B20629EFDB62B1A9
:103BA000002108E00648405C18B90548435401204C
:103BB000EBE7481CC1B20629F4DB0020E5E7000072
:103BC000160000202DE9F04707460D4614464FF039
:103BD0000008FF2C3ED0D7B17DB11F4800780121ED
:103BE000A1400840F8B91C4800780121A1400843D1
:103BF000194908704FF0010815E0174800780121B5
:103C0000A1408843144908704FF001080BE02DB122
:103C100021460120FFF7AEFF804604E02146002048
:103C2000FFF7A8FF8046B8F1000F13D00BA0FFF7F5
:103C300079F9DFF82490002606E019F8061008A0AC
:103C4000FFF770F9701CC6B2082EF6DB03A0FFF771
:103C500069F900BFBDE8F087140000200D0A0000DC
:103C6000253032782000000053797374656D496EF9
:103C7000697469616C697A6500001C000400320097
:103C800005002100060023000700240008002B0087
:103C9000090034000A0033000B0043000C003B0015
:103CA0000D0042000E004B000F003A0010003100E2
:103CB0001100440012004D001300150014002D00E7
:103CC00015001B0016002C0017003C0018002A00ED
:103CD00019001D001A0022001B0035001C001A00EC
:103CE0001D0016001E001E001F00260020002500DB
:103CF00021002E002200360023003D0024003E005B
:103D0000250046002600450027005A0028007600BE
:103D1000290066002A000D002B0029002C004E000F
:103D20002D0055002E0054002F00580030005D007B
:103D300031004C003300520034004100360049008D
:103D400037004A0038005800390005003A000600E4
:103D50003B0004003C000C003D0003003E000B0053
:103D60003F00830040000A004100010042000900BA
:103D70004300780044000700450012E046007E0042
:103D8000470070E049006CE04A007DE04B0071E0C4
:103D90004C0069E04D007AE04E0074E04F006BE0AB
:103DA000500072E0510075E05200770053004AE085
:103DB00054007C0055007B005600790057005AE003
:103DC00058006900590072005A007A005B006B00CD
:103DD0005C0073005D0074005E006C005F007500A5
:103DE00060007D00610070006200710063001400DB
:103DF000120011001FE014E0590011E027E0646593
:103E00006D6F546370446174615265637648616E8E
:103E1000646C650064656D6F5564704461746152D3
:103E200065637648616E646C650064656D6F5463AC
:103E300070536572766572506F6C6C0041494B5BD4
:103E4000DB4153544D333246340000000000000083
:103E50000000000056312E312E382D3400000000B5
:103E6000803E0008000000206C0000006C2F00085D
:103E7000EC3E00086C0000208C1200007C2F000833
:103E8000000000000000000001020304010203041E
:103E90000607080900000000000000000000000004
:103EA0000000000000000000000000000000000012
:103EB0000000000000000000000000000001000001
:103EC00000000000000000000000000000000000F2
:103ED00000000000312E312E312D31000000000095
:0C3EE000000000000000000000000000D6
:040000050800018965
:00000001FF
